{
  "contractName": "CourseMarketPlace",
  "abi": [
    {
      "inputs": [],
      "stateMutability": "nonpayable",
      "type": "constructor"
    },
    {
      "inputs": [
        {
          "internalType": "bytes16",
          "name": "courseId",
          "type": "bytes16"
        },
        {
          "internalType": "bytes32",
          "name": "proof",
          "type": "bytes32"
        }
      ],
      "name": "purchaseCourse",
      "outputs": [],
      "stateMutability": "payable",
      "type": "function",
      "payable": true
    },
    {
      "inputs": [
        {
          "internalType": "address",
          "name": "newOwner",
          "type": "address"
        }
      ],
      "name": "tansferOwnership",
      "outputs": [],
      "stateMutability": "nonpayable",
      "type": "function"
    },
    {
      "inputs": [],
      "name": "getCourseCount",
      "outputs": [
        {
          "internalType": "uint256",
          "name": "",
          "type": "uint256"
        }
      ],
      "stateMutability": "view",
      "type": "function",
      "constant": true
    },
    {
      "inputs": [
        {
          "internalType": "uint256",
          "name": "index",
          "type": "uint256"
        }
      ],
      "name": "getCourseHashAtIndex",
      "outputs": [
        {
          "internalType": "bytes32",
          "name": "",
          "type": "bytes32"
        }
      ],
      "stateMutability": "view",
      "type": "function",
      "constant": true
    },
    {
      "inputs": [
        {
          "internalType": "bytes32",
          "name": "courseHash",
          "type": "bytes32"
        }
      ],
      "name": "getCourseByHash",
      "outputs": [
        {
          "components": [
            {
              "internalType": "uint256",
              "name": "id",
              "type": "uint256"
            },
            {
              "internalType": "uint256",
              "name": "price",
              "type": "uint256"
            },
            {
              "internalType": "bytes32",
              "name": "proof",
              "type": "bytes32"
            },
            {
              "internalType": "address",
              "name": "owner",
              "type": "address"
            },
            {
              "internalType": "enum CourseMarketPlace.State",
              "name": "state",
              "type": "uint8"
            }
          ],
          "internalType": "struct CourseMarketPlace.Course",
          "name": "",
          "type": "tuple"
        }
      ],
      "stateMutability": "view",
      "type": "function",
      "constant": true
    },
    {
      "inputs": [],
      "name": "getContractOwner",
      "outputs": [
        {
          "internalType": "address",
          "name": "",
          "type": "address"
        }
      ],
      "stateMutability": "view",
      "type": "function",
      "constant": true
    }
  ],
  "bytecode": "0x608060405234801561001057600080fd5b506100203361002560201b60201c565b610069565b80600360006101000a81548173ffffffffffffffffffffffffffffffffffffffff021916908373ffffffffffffffffffffffffffffffffffffffff16021790555050565b610b03806100786000396000f3fe6080604052600436106100555760003560e01c8063442890d51461005a57806362e4e6ac146100855780636d11290b146100c257806396cfda06146100ff578063b3c7d0471461012a578063d76821cb14610153575b600080fd5b34801561006657600080fd5b5061006f61016f565b60405161007c91906105fd565b60405180910390f35b34801561009157600080fd5b506100ac60048036038101906100a79190610653565b610199565b6040516100b99190610796565b60405180910390f35b3480156100ce57600080fd5b506100e960048036038101906100e491906107dd565b610274565b6040516100f69190610819565b60405180910390f35b34801561010b57600080fd5b50610114610291565b6040516101219190610843565b60405180910390f35b34801561013657600080fd5b50610151600480360381019061014c919061088a565b61029b565b005b61016d6004803603810190610168919061090f565b61031c565b005b6000600360009054906101000a900473ffffffffffffffffffffffffffffffffffffffff16905090565b6101a1610562565b6000808381526020019081526020016000206040518060a00160405290816000820154815260200160018201548152602001600282015481526020016003820160009054906101000a900473ffffffffffffffffffffffffffffffffffffffff1673ffffffffffffffffffffffffffffffffffffffff1673ffffffffffffffffffffffffffffffffffffffff1681526020016003820160149054906101000a900460ff166002811115610257576102566106b7565b5b6002811115610269576102686106b7565b5b815250509050919050565b600060016000838152602001908152602001600020549050919050565b6000600254905090565b6102a361016f565b73ffffffffffffffffffffffffffffffffffffffff163373ffffffffffffffffffffffffffffffffffffffff1614610310576040517f08c379a0000000000000000000000000000000000000000000000000000000008152600401610307906109ac565b60405180910390fd5b610319816104b1565b50565b60008233604051602001610331929190610a35565b604051602081830303815290604052805190602001209050610352816104f5565b15610392576040517f08c379a000000000000000000000000000000000000000000000000000000000815260040161038990610aad565b60405180910390fd5b600060025490508160016000838152602001908152602001600020819055506040518060a001604052808281526020013481526020018481526020013373ffffffffffffffffffffffffffffffffffffffff168152602001600060028111156103fe576103fd6106b7565b5b81525060008084815260200190815260200160002060008201518160000155602082015181600101556040820151816002015560608201518160030160006101000a81548173ffffffffffffffffffffffffffffffffffffffff021916908373ffffffffffffffffffffffffffffffffffffffff16021790555060808201518160030160146101000a81548160ff021916908360028111156104a3576104a26106b7565b5b021790555090505050505050565b80600360006101000a81548173ffffffffffffffffffffffffffffffffffffffff021916908373ffffffffffffffffffffffffffffffffffffffff16021790555050565b60003373ffffffffffffffffffffffffffffffffffffffff1660008084815260200190815260200160002060030160009054906101000a900473ffffffffffffffffffffffffffffffffffffffff1673ffffffffffffffffffffffffffffffffffffffff16149050919050565b6040518060a00160405280600081526020016000815260200160008019168152602001600073ffffffffffffffffffffffffffffffffffffffff168152602001600060028111156105b6576105b56106b7565b5b81525090565b600073ffffffffffffffffffffffffffffffffffffffff82169050919050565b60006105e7826105bc565b9050919050565b6105f7816105dc565b82525050565b600060208201905061061260008301846105ee565b92915050565b600080fd5b6000819050919050565b6106308161061d565b811461063b57600080fd5b50565b60008135905061064d81610627565b92915050565b60006020828403121561066957610668610618565b5b60006106778482850161063e565b91505092915050565b6000819050919050565b61069381610680565b82525050565b6106a28161061d565b82525050565b6106b1816105dc565b82525050565b7f4e487b7100000000000000000000000000000000000000000000000000000000600052602160045260246000fd5b600381106106f7576106f66106b7565b5b50565b6000819050610708826106e6565b919050565b6000610718826106fa565b9050919050565b6107288161070d565b82525050565b60a082016000820151610744600085018261068a565b506020820151610757602085018261068a565b50604082015161076a6040850182610699565b50606082015161077d60608501826106a8565b506080820151610790608085018261071f565b50505050565b600060a0820190506107ab600083018461072e565b92915050565b6107ba81610680565b81146107c557600080fd5b50565b6000813590506107d7816107b1565b92915050565b6000602082840312156107f3576107f2610618565b5b6000610801848285016107c8565b91505092915050565b6108138161061d565b82525050565b600060208201905061082e600083018461080a565b92915050565b61083d81610680565b82525050565b60006020820190506108586000830184610834565b92915050565b610867816105dc565b811461087257600080fd5b50565b6000813590506108848161085e565b92915050565b6000602082840312156108a05761089f610618565b5b60006108ae84828501610875565b91505092915050565b60007fffffffffffffffffffffffffffffffff0000000000000000000000000000000082169050919050565b6108ec816108b7565b81146108f757600080fd5b50565b600081359050610909816108e3565b92915050565b6000806040838503121561092657610925610618565b5b6000610934858286016108fa565b92505060206109458582860161063e565b9150509250929050565b600082825260208201905092915050565b7f6f6e6c79206f776e65722068617320616e206163636573737321000000000000600082015250565b6000610996601a8361094f565b91506109a182610960565b602082019050919050565b600060208201905081810360008301526109c581610989565b9050919050565b6000819050919050565b6109e76109e2826108b7565b6109cc565b82525050565b60008160601b9050919050565b6000610a05826109ed565b9050919050565b6000610a17826109fa565b9050919050565b610a2f610a2a826105dc565b610a0c565b82525050565b6000610a4182856109d6565b601082019150610a518284610a1e565b6014820191508190509392505050565b7f436f757273652068617320616c72656164792061204f776e6572210000000000600082015250565b6000610a97601b8361094f565b9150610aa282610a61565b602082019050919050565b60006020820190508181036000830152610ac681610a8a565b905091905056fea26469706673582212206745ed2632ab79ebed81a59824418b7bec35677232ab2620d1c1c073ab6f061a64736f6c634300080f0033",
  "immutableReferences": {},
  "source": "// SPDX-License-Identifier: GPL-3.0\r\npragma solidity >=0.7.0 <0.9.0;\r\n\r\ncontract CourseMarketPlace {\r\n    enum State {\r\n        Purchased,\r\n        Activated,\r\n        Deactivated\r\n    }\r\n\r\n    struct Course {\r\n        uint id;\r\n        uint price;\r\n        bytes32 proof;\r\n        address owner;\r\n        State state;\r\n    }\r\n\r\n    // mapping of courseHash to Course data\r\n    mapping(bytes32 => Course) private ownedCourses;\r\n\r\n    // mapping of courseID to courseHash\r\n    mapping(uint => bytes32) private ownedCourseHash;\r\n\r\n    //number of all courses + id of the course\r\n    uint private totalOwnedCourses;\r\n\r\n    address payable private owner;\r\n\r\n    constructor () {\r\n        setContractOwner(msg.sender);\r\n    }\r\n\r\n    modifier onlyOwner() {\r\n        if (msg.sender != getContractOwner()) {\r\n            revert(\"only owner has an accesss!\");\r\n        }\r\n        _;\r\n    }\r\n\r\n    function purchaseCourse (\r\n        bytes16 courseId,\r\n        bytes32 proof\r\n    )\r\n        external\r\n        payable\r\n    {\r\n        bytes32 courseHash = keccak256(abi.encodePacked(courseId, msg.sender));\r\n\r\n        if (hasCourseOwnership(courseHash)){\r\n            revert(\"Course has already a Owner!\");\r\n        }\r\n\r\n        uint id = totalOwnedCourses;\r\n        ownedCourseHash[id] = courseHash;\r\n        ownedCourses[courseHash] = Course({\r\n            id : id,\r\n            price : msg.value,\r\n            proof : proof,\r\n            state : State.Purchased,\r\n            owner : msg.sender\r\n        });\r\n    }\r\n\r\n    function tansferOwnership (address newOwner)\r\n        external\r\n        onlyOwner\r\n    {\r\n        setContractOwner(newOwner);\r\n    }\r\n\r\n    function getCourseCount()\r\n        external\r\n        view\r\n        returns (uint)\r\n        {\r\n            return totalOwnedCourses;\r\n        }\r\n\r\n    function getCourseHashAtIndex(uint index) \r\n        external\r\n        view \r\n        returns (bytes32)\r\n        {\r\n            return ownedCourseHash[index];\r\n        }\r\n\r\n    function getCourseByHash(bytes32 courseHash)\r\n        external\r\n        view\r\n        returns (Course memory)\r\n        {\r\n            return ownedCourses[courseHash];\r\n        }\r\n\r\n    function getContractOwner()\r\n        public\r\n        view\r\n        returns (address)\r\n        {\r\n            return owner;\r\n        }\r\n\r\n    function setContractOwner(address newOwner) \r\n        private \r\n        {\r\n            owner = payable(newOwner);\r\n        }\r\n    \r\n    function hasCourseOwnership (bytes32 courseHash)\r\n        private\r\n        view\r\n        returns (bool)\r\n        {\r\n            return ownedCourses[courseHash].owner == msg.sender;\r\n        }\r\n}",
  "sourcePath": "D:\\zaheer Data\\blockchainprojects\\marketPlace\\marketplace-eth\\contracts\\CourseMarketplace.sol",
  "compiler": {
    "name": "solc",
    "version": "0.8.15+commit.e14f2714.Emscripten.clang"
  },
  "schemaVersion": "3.4.8",
  "updatedAt": "2022-07-22T18:35:22.213Z",
  "networkType": "ethereum",
  "devdoc": {
    "kind": "dev",
    "methods": {},
    "version": 1
  },
  "userdoc": {
    "kind": "user",
    "methods": {},
    "version": 1
  }
}