{
  "contractName": "CourseMarketPlace",
  "abi": [
    {
      "inputs": [],
      "stateMutability": "nonpayable",
      "type": "constructor"
    },
    {
      "inputs": [
        {
          "internalType": "bytes16",
          "name": "courseId",
          "type": "bytes16"
        },
        {
          "internalType": "bytes32",
          "name": "proof",
          "type": "bytes32"
        }
      ],
      "name": "purchaseCourse",
      "outputs": [],
      "stateMutability": "payable",
      "type": "function",
      "payable": true
    },
    {
      "inputs": [
        {
          "internalType": "address",
          "name": "newOwner",
          "type": "address"
        }
      ],
      "name": "tansferOwnership",
      "outputs": [],
      "stateMutability": "nonpayable",
      "type": "function"
    },
    {
      "inputs": [],
      "name": "getCourseCount",
      "outputs": [
        {
          "internalType": "uint256",
          "name": "",
          "type": "uint256"
        }
      ],
      "stateMutability": "view",
      "type": "function",
      "constant": true
    },
    {
      "inputs": [
        {
          "internalType": "uint256",
          "name": "index",
          "type": "uint256"
        }
      ],
      "name": "getCourseHashAtIndex",
      "outputs": [
        {
          "internalType": "bytes32",
          "name": "",
          "type": "bytes32"
        }
      ],
      "stateMutability": "view",
      "type": "function",
      "constant": true
    },
    {
      "inputs": [
        {
          "internalType": "bytes32",
          "name": "courseHash",
          "type": "bytes32"
        }
      ],
      "name": "getCourseByHash",
      "outputs": [
        {
          "components": [
            {
              "internalType": "uint256",
              "name": "id",
              "type": "uint256"
            },
            {
              "internalType": "uint256",
              "name": "price",
              "type": "uint256"
            },
            {
              "internalType": "bytes32",
              "name": "proof",
              "type": "bytes32"
            },
            {
              "internalType": "address",
              "name": "owner",
              "type": "address"
            },
            {
              "internalType": "enum CourseMarketPlace.State",
              "name": "state",
              "type": "uint8"
            }
          ],
          "internalType": "struct CourseMarketPlace.Course",
          "name": "",
          "type": "tuple"
        }
      ],
      "stateMutability": "view",
      "type": "function",
      "constant": true
    },
    {
      "inputs": [],
      "name": "getContractOwner",
      "outputs": [
        {
          "internalType": "address",
          "name": "",
          "type": "address"
        }
      ],
      "stateMutability": "view",
      "type": "function",
      "constant": true
    }
  ],
  "bytecode": "0x608060405234801561001057600080fd5b506100203361002560201b60201c565b610069565b80600360006101000a81548173ffffffffffffffffffffffffffffffffffffffff021916908373ffffffffffffffffffffffffffffffffffffffff16021790555050565b610b8e806100786000396000f3fe6080604052600436106100555760003560e01c8063442890d51461005a57806362e4e6ac146100855780636d11290b146100c257806396cfda06146100ff578063b3c7d0471461012a578063d76821cb14610153575b600080fd5b34801561006657600080fd5b5061006f61016f565b60405161007c9190610611565b60405180910390f35b34801561009157600080fd5b506100ac60048036038101906100a79190610667565b610199565b6040516100b991906107aa565b60405180910390f35b3480156100ce57600080fd5b506100e960048036038101906100e491906107f1565b610274565b6040516100f6919061082d565b60405180910390f35b34801561010b57600080fd5b50610114610291565b6040516101219190610857565b60405180910390f35b34801561013657600080fd5b50610151600480360381019061014c919061089e565b61029b565b005b61016d60048036038101906101689190610923565b61031c565b005b6000600360009054906101000a900473ffffffffffffffffffffffffffffffffffffffff16905090565b6101a1610576565b6000808381526020019081526020016000206040518060a00160405290816000820154815260200160018201548152602001600282015481526020016003820160009054906101000a900473ffffffffffffffffffffffffffffffffffffffff1673ffffffffffffffffffffffffffffffffffffffff1673ffffffffffffffffffffffffffffffffffffffff1681526020016003820160149054906101000a900460ff166002811115610257576102566106cb565b5b6002811115610269576102686106cb565b5b815250509050919050565b600060016000838152602001908152602001600020549050919050565b6000600254905090565b6102a361016f565b73ffffffffffffffffffffffffffffffffffffffff163373ffffffffffffffffffffffffffffffffffffffff1614610310576040517f08c379a0000000000000000000000000000000000000000000000000000000008152600401610307906109c0565b60405180910390fd5b610319816104c5565b50565b60008233604051602001610331929190610a49565b60405160208183030381529060405280519060200120905061035281610509565b15610392576040517f08c379a000000000000000000000000000000000000000000000000000000000815260040161038990610ac1565b60405180910390fd5b6000600260008154809291906103a790610b10565b9190505590508160016000838152602001908152602001600020819055506040518060a001604052808281526020013481526020018481526020013373ffffffffffffffffffffffffffffffffffffffff16815260200160006002811115610412576104116106cb565b5b81525060008084815260200190815260200160002060008201518160000155602082015181600101556040820151816002015560608201518160030160006101000a81548173ffffffffffffffffffffffffffffffffffffffff021916908373ffffffffffffffffffffffffffffffffffffffff16021790555060808201518160030160146101000a81548160ff021916908360028111156104b7576104b66106cb565b5b021790555090505050505050565b80600360006101000a81548173ffffffffffffffffffffffffffffffffffffffff021916908373ffffffffffffffffffffffffffffffffffffffff16021790555050565b60003373ffffffffffffffffffffffffffffffffffffffff1660008084815260200190815260200160002060030160009054906101000a900473ffffffffffffffffffffffffffffffffffffffff1673ffffffffffffffffffffffffffffffffffffffff16149050919050565b6040518060a00160405280600081526020016000815260200160008019168152602001600073ffffffffffffffffffffffffffffffffffffffff168152602001600060028111156105ca576105c96106cb565b5b81525090565b600073ffffffffffffffffffffffffffffffffffffffff82169050919050565b60006105fb826105d0565b9050919050565b61060b816105f0565b82525050565b60006020820190506106266000830184610602565b92915050565b600080fd5b6000819050919050565b61064481610631565b811461064f57600080fd5b50565b6000813590506106618161063b565b92915050565b60006020828403121561067d5761067c61062c565b5b600061068b84828501610652565b91505092915050565b6000819050919050565b6106a781610694565b82525050565b6106b681610631565b82525050565b6106c5816105f0565b82525050565b7f4e487b7100000000000000000000000000000000000000000000000000000000600052602160045260246000fd5b6003811061070b5761070a6106cb565b5b50565b600081905061071c826106fa565b919050565b600061072c8261070e565b9050919050565b61073c81610721565b82525050565b60a082016000820151610758600085018261069e565b50602082015161076b602085018261069e565b50604082015161077e60408501826106ad565b50606082015161079160608501826106bc565b5060808201516107a46080850182610733565b50505050565b600060a0820190506107bf6000830184610742565b92915050565b6107ce81610694565b81146107d957600080fd5b50565b6000813590506107eb816107c5565b92915050565b6000602082840312156108075761080661062c565b5b6000610815848285016107dc565b91505092915050565b61082781610631565b82525050565b6000602082019050610842600083018461081e565b92915050565b61085181610694565b82525050565b600060208201905061086c6000830184610848565b92915050565b61087b816105f0565b811461088657600080fd5b50565b60008135905061089881610872565b92915050565b6000602082840312156108b4576108b361062c565b5b60006108c284828501610889565b91505092915050565b60007fffffffffffffffffffffffffffffffff0000000000000000000000000000000082169050919050565b610900816108cb565b811461090b57600080fd5b50565b60008135905061091d816108f7565b92915050565b6000806040838503121561093a5761093961062c565b5b60006109488582860161090e565b925050602061095985828601610652565b9150509250929050565b600082825260208201905092915050565b7f6f6e6c79206f776e65722068617320616e206163636573737321000000000000600082015250565b60006109aa601a83610963565b91506109b582610974565b602082019050919050565b600060208201905081810360008301526109d98161099d565b9050919050565b6000819050919050565b6109fb6109f6826108cb565b6109e0565b82525050565b60008160601b9050919050565b6000610a1982610a01565b9050919050565b6000610a2b82610a0e565b9050919050565b610a43610a3e826105f0565b610a20565b82525050565b6000610a5582856109ea565b601082019150610a658284610a32565b6014820191508190509392505050565b7f436f757273652068617320616c72656164792061204f776e6572210000000000600082015250565b6000610aab601b83610963565b9150610ab682610a75565b602082019050919050565b60006020820190508181036000830152610ada81610a9e565b9050919050565b7f4e487b7100000000000000000000000000000000000000000000000000000000600052601160045260246000fd5b6000610b1b82610694565b91507fffffffffffffffffffffffffffffffffffffffffffffffffffffffffffffffff8203610b4d57610b4c610ae1565b5b60018201905091905056fea2646970667358221220801ef41b4cd394798aa54d93520d7d92bc9ea649dc3d6e4ab25ef6202381ebca64736f6c634300080f0033",
  "immutableReferences": {},
  "source": "// SPDX-License-Identifier: GPL-3.0\r\npragma solidity >=0.7.0 <0.9.0;\r\n\r\ncontract CourseMarketPlace {\r\n    enum State {\r\n        Purchased,\r\n        Activated,\r\n        Deactivated\r\n    }\r\n\r\n    struct Course {\r\n        uint id;\r\n        uint price;\r\n        bytes32 proof;\r\n        address owner;\r\n        State state;\r\n    }\r\n\r\n    // mapping of courseHash to Course data\r\n    mapping(bytes32 => Course) private ownedCourses;\r\n\r\n    // mapping of courseID to courseHash\r\n    mapping(uint => bytes32) private ownedCourseHash;\r\n\r\n    //number of all courses + id of the course\r\n    uint private totalOwnedCourses;\r\n\r\n    address payable private owner;\r\n\r\n    constructor () {\r\n        setContractOwner(msg.sender);\r\n    }\r\n\r\n    modifier onlyOwner() {\r\n        if (msg.sender != getContractOwner()) {\r\n            revert(\"only owner has an accesss!\");\r\n        }\r\n        _;\r\n    }\r\n\r\n    function purchaseCourse (\r\n        bytes16 courseId,\r\n        bytes32 proof\r\n    )\r\n        external\r\n        payable\r\n    {\r\n        bytes32 courseHash = keccak256(abi.encodePacked(courseId, msg.sender));\r\n\r\n        if (hasCourseOwnership(courseHash)){\r\n            revert(\"Course has already a Owner!\");\r\n        }\r\n\r\n        uint id = totalOwnedCourses++;\r\n        ownedCourseHash[id] = courseHash;\r\n        ownedCourses[courseHash] = Course({\r\n            id : id,\r\n            price : msg.value,\r\n            proof : proof,\r\n            state : State.Purchased,\r\n            owner : msg.sender\r\n        });\r\n    }\r\n\r\n    function tansferOwnership (address newOwner)\r\n        external\r\n        onlyOwner\r\n    {\r\n        setContractOwner(newOwner);\r\n    }\r\n\r\n    function getCourseCount()\r\n        external\r\n        view\r\n        returns (uint)\r\n        {\r\n            return totalOwnedCourses;\r\n        }\r\n\r\n    function getCourseHashAtIndex(uint index) \r\n        external\r\n        view \r\n        returns (bytes32)\r\n        {\r\n            return ownedCourseHash[index];\r\n        }\r\n\r\n    function getCourseByHash(bytes32 courseHash)\r\n        external\r\n        view\r\n        returns (Course memory)\r\n        {\r\n            return ownedCourses[courseHash];\r\n        }\r\n\r\n    function getContractOwner()\r\n        public\r\n        view\r\n        returns (address)\r\n        {\r\n            return owner;\r\n        }\r\n\r\n    function setContractOwner(address newOwner) \r\n        private \r\n        {\r\n            owner = payable(newOwner);\r\n        }\r\n    \r\n    function hasCourseOwnership (bytes32 courseHash)\r\n        private\r\n        view\r\n        returns (bool)\r\n        {\r\n            return ownedCourses[courseHash].owner == msg.sender;\r\n        }\r\n}",
  "sourcePath": "D:\\zaheer Data\\blockchainprojects\\marketPlace\\marketplace-eth\\contracts\\CourseMarketplace.sol",
  "compiler": {
    "name": "solc",
    "version": "0.8.15+commit.e14f2714.Emscripten.clang"
  },
  "schemaVersion": "3.4.8",
  "updatedAt": "2022-07-24T14:10:36.133Z",
  "networkType": "ethereum",
  "devdoc": {
    "kind": "dev",
    "methods": {},
    "version": 1
  },
  "userdoc": {
    "kind": "user",
    "methods": {},
    "version": 1
  }
}